:020000040000fa
:080000000002040000000000f2
:020000040000fa
:100008009a0200009a0200009a0200009a02000078
:100018009a0200009a0200009a0200009a02000068
:100028009a0200009a0200009a020000f002000002
:100038009a0200009a0200009a0200009a02000048
:100048009a0200009a0200009a0200009a02000038
:100058009a0200009a0200009a0200009a02000028
:100068009a0200009a0200009a0200009a02000018
:100078009a0200009a0200009a0200009a02000008
:100088009a0200009a0200009a0200009a020000f8
:100098009a0200009a0200009a0200009a020000e8
:1000a8009a0200009a0200009a0200009a020000d8
:1000b8009a0200009a0200009a0200009a020000c8
:1000c8009a0200009a0200009a0200009a020000b8
:1000d8009a0200009a0200009a0200009a020000a8
:1000e8009a0200009a0200009a0200009a02000098
:1000f8009a0200009a0200009a0200009a02000088
:100108009a0200009a0200009a0200009a02000077
:100118009a0200009a0200009a0200009a02000067
:100128009a0200009a0200009a0200009a02000057
:100138009a0200009a0200009a0200009a02000047
:100148009a0200009a0200009a0200009a02000037
:100158009a0200009a0200009a0200009a02000027
:100168009a0200009a0200009a0200009a02000017
:100178009a0200009a0200009a0200009a02000007
:100188009a0200009a0200009a0200009a020000f7
:100198009a0200009a0200009a0200009a020000e7
:1001a8009a0200009a0200009a0200009a020000d7
:1001b8009a0200009a0200009a0200009a020000c7
:1001c8009a0200009a0200009a0200009a020000b7
:1001d8009a0200009a0200009a0200009a020000a7
:1001e8009a0200009a0200009a0200009a02000097
:0801f8009a0200009a020000c7
:020000040000fa
:100208009a0200009a0200009a0200009a02000076
:100218009a0200009a0200009a0200009a02000066
:100228009a0200009a0200009a020000f002000000
:100238009a0200009a0200009a0200009a02000046
:100248009a0200009a0200009a0200009a02000036
:100258009a0200009a0200009a0200009a02000026
:100268009a0200009a0200009a0200009a02000016
:100278009a0200009a0200009a0200009a02000006
:100288009a0200009a0200009a0200009a020000f6
:100298009a0200009a0200009a0200009a020000e6
:1002a8009a0200009a0200009a0200009a020000d6
:1002b8009a0200009a0200009a0200009a020000c6
:1002c8009a0200009a0200009a0200009a020000b6
:1002d8009a0200009a0200009a0200009a020000a6
:1002e8009a0200009a0200009a0200009a02000096
:1002f8009a0200009a0200009a0200009a02000086
:100308009a0200009a0200009a0200009a02000075
:100318009a0200009a0200009a0200009a02000065
:100328009a0200009a0200009a0200009a02000055
:100338009a0200009a0200009a0200009a02000045
:100348009a0200009a0200009a0200009a02000035
:100358009a0200009a0200009a0200009a02000025
:100368009a0200009a0200009a0200009a02000015
:100378009a0200009a0200009a0200009a02000005
:100388009a0200009a0200009a0200009a020000f5
:100398009a0200009a0200009a0200009a020000e5
:1003a8009a0200009a0200009a0200009a020000d5
:1003b8009a0200009a0200009a0200009a020000c5
:1003c8009a0200009a0200009a0200009a020000b5
:1003d8009a0200009a0200009a0200009a020000a5
:1003e8009a0200009a0200009a0200009a02000095
:0803f8009a0200009a020000c5
:020000040000fa
:100400004f8020000e7f22000e01880000000000b7
:10041000000020000000e000020032000001200087
:10042000200288000c000700e046200001002000a8
:1004300011000700000020000000e0000200320070
:1004400000000200000000009e0202000000000008
:100450000040da000000fe004440a9000000200037
:100460000000e0000300320000002000a00188002e
:100470004440a80000000600910188008000780038
:100480000000eb0015003700e280400032a0b4000d
:100490009101ba00e280400032a0b4009102ba009b
:1004a000e280400032a0b4000002eb00472bde00e7
:1004b000f507b200602ce10004003a000059eb009f
:1004c0008301e900fdff3e00040037006128e100e0
:1004d000010032000082eb00040007001101ba00a5
:1004e0000200e000e8ff3a00000006003159ba00bf
:1004f0008301e9000c0032002159ba008301e900b0
:10050000080032000400e00003003a00e2804000ee
:1005100032a0b400f5ff370011d9ba008301e90019
:10052000faff3a008100e800e180400032a0b40008
:0c053000000006000040da000000fe00a1
:020000040000fa
:10053c000000fa00a6000700b4000700af00070097
:10054c000002eb001440880001003700000000009e
:10055c0004408000050020007600200007002000e9
:10056c00860f5200878f5a00f8ff3e00046001008e
:10057c00070037000a0037000d0037001000370065
:10058c0006003700090037000c0037000f00370059
:10059c0040002000ab0007000d0037000c003700b6
:1005ac0050002000a70007000900370008003700a2
:1005bc0060002000a300070005003700040037008e
:1005cc00700020009f0007000100370000000000b1
:1005dc00dfff3700801f7800849fbe003400f800d6
:1005ec0000002000a00188000000fa008460a9002f
:1005fc00144080000402e800144088005516800066
:10060c000402200004826200e00f52003700320026
:10061c0004408000e40f52000b003a0014408000ac
:10062c00f30f520003003c0014002000044088002b
:10063c000200370034002000044088000002eb0068
:10064c00144088002900370004408000e50f520058
:10065c000b003a0014408000f30f520003003c00e2
:10066c002400200004408800020037000002eb0048
:10067c00044088000002eb00144088001b00370087
:10068c0004408000e60f52000b003a00144080003a
:10069c00f30f520003003c0034002000044088009b
:1006ac000200370014002000044088000002eb0018
:1006bc00144088000d00370004408000e70f520002
:1006cc000a003a0014408000f30f520003003c0073
:1006dc000002eb00044088000200370024002000d8
:1006ec00044088000002eb001440880004408000a5
:1006fc00e00f52000a003a00551680000402200058
:10070c0004826200e00f5200030032000002eb0092
:10071c000440880002003700440020000440880098
:10072c0004408000e10f52000a003a005516800088
:10073c000402200004826200e00f52000300320029
:10074c0014002000044088000200370054002000f0
:10075c000440880004408000e20f52000a003a0076
:10076c00551680000402200004826200e00f520043
:10077c0003003200240020000440880002003700ef
:10078c00640020000440880004408000e30f520005
:10079c000a003a0055168000040220000482620010
:1007ac00e00f5200030032003400200004408800a7
:1007bc000200370074002000044088000080fa001a
:1007cc003400f9004f02be004f00780000400600d4
:1007dc000000fa00c9e2a900c9c2a900c9a2a90077
:1007ec00c982a900cde2a800cdc2a800cda2a80064
:1007fc00cd82a8000080fa00000006000000fa007c
:10080c00c8a2a8000080fa00000006000200fa004e
:10081c00f4672100040f78001e0278001408880089
:10082c00240880000440a0000450a0002408880084
:10083c009460a8008460a90005e1a8000080fa007b
:10084c00000006000200fa00000f78001e0278007b
:10085c00e40f520005003a00cde2a900cdc2a80079
:10086c00cda2a800cd82a800170037001e02780088
:10087c00e50f520005003a00cde2a800cdc2a90058
:10088c00cda2a800cd82a8000f0037001e02780070
:10089c00e60f520005003a00cde2a800cdc2a80038
:1008ac00cda2a900cd82a800070037001e02780057
:1008bc00e70f520004003a00cde2a800cdc2a80018
:1008cc00cda2a800cd82a9000080fa00000006008d
:020000040000fa
:1008dc000008000004000000000000000000000000
:020000040000fa
:020000040001f9
:0457f800ad7b000085
:020000040000fa
:020000040001f9
:0457fc003f3f00002b
:00000001FF
